:200000000C9462000C948A000C948A000C948A000C948A000C948A000C948A000C948A00B8
:200020000C948A000C948A000C948A000C948A000C948A000C948A000C948A000C948A0070
:200040000C9401040C948A000C94D8070C940A080C948A000C948A000C948A000C948A00F8
:200060000C948A000C948A0000000008000201000003040700000000000000000102040804
:200080001020408001020408102001020408102004040404040404040202020202020303C0
:2000A000030303030000000023002600290000000000250028002B000000000024002700FF
:2000C0002A003A0811241FBECFEFD8E0DEBFCDBF11E0A0E0B1E0E4EEF6E102C005900D9262
:2000E000A432B107D9F721E0A4E2B1E001C01D92A13EB207E1F710E0C4ECD0E004C02297DD
:20010000FE010E945D0BC23CD107C9F70E947E080C94700B0C940000CF93DF9326E040E85B
:2001200055E260E070E084E491E00E94760761E089E00E94760561E08BE00E94760562E02E
:2001400082E00E94760560E080910A010E94760560E0809108010E94760560E080910601D8
:200160000E947605C4E0D1E061E088810E94760560E088810E94AF0560E0809102010E9411
:20018000760560E083E10E94760560E082E10E94760560E085E10E94760561E085E00E9458
:2001A000760561E086E00E94760561E087E00E94760561E088E0DF91CF910C947605982FE0
:2001C000947081FF04C0992319F186E00895911121C080FD21C0982F9072282F287083FFF3
:2001E00007C091110FC086FD0FC084FD0FC002C0911108C086FD08C084FD08C0222369F0C7
:2002000088E0089580E2089580E4089580E1089582E0089584E0089581E008950F931F9389
:2002200061E0809104010E94AF0560E0809104010E94AF0520E137E240E050E061E08091A9
:2002400002010E940E0660932B0170932C0180932D0190932E012AE330E040E050E00E94F4
:200260001D0B12161306140615064CF420932701309328014093290150932A010CC086E993
:2002800090E0A0E0B0E08093270190932801A0932901B0932A01409100015091010166274A
:2002A00057FD6095762F81E000912701109128012091290130912A01401751076207730713
:2002C0000CF480E01F910F910895809125018A3031F4109225010E940E01809324018091F9
:2002E00025018F5F80932501809124010895CF92DF92EF92FF9283E10E94D104BC018827B3
:2003000077FD8095982F0E94370A6B017C0120E030E040E851E40E94C90987FF06C0C12CA7
:20032000D12C80E8E82E81E4F82E20E030E040E351E4C701B6010E9464099B01AC0160E038
:2003400070EC81E095E40E94CD09FF90EF90DF90CF900895CF92DF92EF92FF9282E10E948D
:20036000D104BC01882777FD8095982F0E94370A6B017C0120E030E040E851E40E94C9093F
:2003800087FF06C0C12CD12C90E8E92E91E4F92E20E030E040E351E4C701B6010E94640906
:2003A0009B01AC0160E070EC81E095E40E94CD09FF90EF90DF90CF900895CF92DF92EF923A
:2003C000FF9285E10E94D104BC01882777FD8095982F0E94370A6B017C0120E030E040E8EF
:2003E00051E40E94C90987FF06C0C12CD12C20E8E22E21E4F22E20E030E040E351E4C701B1
:20040000B6010E9464099B01AC0160E070EC81E095E40E94CD09FF90EF90DF90CF90089566
:20042000CF92DF92EF92FF920E9477016B017C0160933701709338018093390190933A01C3
:200440006091100170911101882777FD8095982F0E94370A9B01AC01C701B6010E94C90969
:2004600018160CF03EC00E94AA016B017C016093330170933401809335019093360160912B
:200480000E0170910F01882777FD8095982F0E94370A9B01AC01C701B6010E94C9091816F0
:2004A00014F50E94DD016B017C0160932F0170933001809331019093320160910C017091D9
:2004C0000D01882777FD8095982F0E94370A9B01AC01C701B6010E94C909181634F084E03A
:2004E00005C081E003C082E001C080E0FF90EF90DF90CF900895CF93DF930E941002D82F88
:2005000080910A010E94D104C1E0843691050CF0C0E0809108010E94D104843691050CF4DA
:20052000C260809106010E94D104843691050CF4C4600E946501813009F4C860D13011F4B2
:20054000C06107C0D23011F4C06203C0D43009F4C0648C2FDF91CF910895FF920F931F9395
:20056000CF93DF93F62EEA018330910531F16CF481309105D9F0029709F041C06FEF70E07C
:2005800085E00E94EE0460E02EC08430910529F10597A9F560E070E085E00E94EE0460E0CD
:2005A00087E00E94AF0560E070E022C06FEF70E085E00E94EE0461E006C06FEF70E085E04B
:2005C0000E94EE0460E087E00E94AF056FEF70E086E00E94EE0461E00FC06FEF70E085E0BF
:2005E0000E94EE0461E087E00E94AF056FEF70E086E00E94EE0460E088E00E94AF0520970C
:20060000F9F0CE016AE070E00E94E70A8B01C0E0D0E0C017D10784F46AE070E080E090E088
:200620000E946E0421960E947B020E94DF008F290E94DF008F1569F381E0C017D10709F409
:2006400080E0DF91CF911F910F91FF900895CF930E947B020E94DF00C82F42E050E0682F0C
:2006600084E491E00E944C09C63079F150F4C13019F1C8F0C23009F43FC0C43009F451C063
:200680007EC0C03109F474C020F4C83009F467C076C0C03209F45AC0C03409F070C048EC3A
:2006A00050E060E462C060E089E00E94AF0560E08BE00E94AF0563C060E08BE00E94AF0580
:2006C00061E089E00E94AF054AC061E08BE00E94AF0561E089E00E94AF0548EC50E066E064
:2006E00082E090E00E94AD02813011F481E048C048EC50E066E039C061E08BE00E94AF0513
:2007000060E089E00E94AF0548EC50E062E082E090E00E94AD02813049F348EC50E062E07E
:2007200024C061E08BE00E94AF0560E089E00E94AF0548EC50E064E082E090E00E94AD0209
:200740008130A1F248EC50E064E003C048EC50E060E283E090E00E94AD02813039F240E024
:2007600050E060E081E090E008C084E090E0F3CF40E050E060E082E090E00E94AD0280E0C7
:20078000CF910895CF9340E050E060E085E090E00E94AD021092260182E00E94E5050197F5
:2007A000D9F382E00E94E505892BD9F361E089E00E94AF0569E773E180E090E00E946E0477
:2007C00060E089E00E94AF0540E050E060E082E090E00E94AD02C1E08091260181110AC032
:2007E0000E94270382E00E94E505892BA9F7C0932601F2CF82E00E94E505892BD9F3CF91E2
:2008000008951F920F920FB60F9211242F933F938F939F93AF93BF9380913C0190913D0125
:20082000A0913E01B0913F0130913B0123E0230F2D3720F40196A11DB11D05C026E8230FF5
:200840000296A11DB11D20933B0180933C0190933D01A0933E01B0933F018091400190916C
:200860004101A0914201B09143010196A11DB11D8093400190934101A0934201B093430164
:20088000BF91AF919F918F913F912F910F900FBE0F901F9018953FB7F8948091400190918C
:2008A0004101A0914201B091430126B5A89B05C02F3F19F00196A11DB11D3FBF6627782F4E
:2008C000892F9A2F620F711D811D911D42E0660F771F881F991F4A95D1F70895CF92DF92AA
:2008E000EF92FF92CF93DF936B017C010E944B04EB01C114D104E104F10489F00E94630941
:200900000E944B046C1B7D0B683E734090F381E0C81AD108E108F108C851DC4FEACFDF9190
:20092000CF91FF90EF90DF90CF900895789484B5826084BD84B5816084BD85B5826085BDBD
:2009400085B5816085BDEEE6F0E0808181608083E1E8F0E0108280818260808380818160BE
:200960008083E0E8F0E0808181608083E1EBF0E0808184608083E0EBF0E0808181608083F3
:20098000EAE7F0E08081846080838081826080838081816080838081806880831092C100B4
:2009A00008958E3008F08E5087702091120190E4299F90011124822B80937C0080917A0082
:2009C000806480937A0080917A0086FDFCCF809178002091790090E0922B08951F93CF933C
:2009E000DF93182FEB0161E00E947605209711F460E004C0CF3FD10539F461E0812FDF91C2
:200A0000CF911F910C94AF05E12FF0E0E859FF4FE491E330F9F048F4E130B9F0E230A1F5F4
:200A200084B5806284BDC8BD34C0E730E9F0E83019F1E43049F58091800080628093800077
:200A4000D0938B00C0938A0024C084B5806884BDC7BD1FC080918000806880938000D093B3
:200A60008900C093880015C08091B00080688093B000C093B3000DC08091B0008062809348
:200A8000B000C093B40005C0C038D1050CF0B5CFAFCFDF91CF911F910895833081F028F4B1
:200AA000813099F08230A1F008958730A9F08830B9F08430D1F4809180008F7D03C0809181
:200AC00080008F7780938000089584B58F7702C084B58F7D84BD08958091B0008F7703C0B2
:200AE0008091B0008F7D8093B0000895CF93DF9390E0FC01E458FF4F2491FC01E057FF4FC7
:200B00008491882349F190E0880F991FFC01E854FF4FA591B49182559F4FFC01C591D4919D
:200B20009FB7611108C0F8948C91209582238C93888182230AC0623051F4F8948C91322FAA
:200B4000309583238C938881822B888304C0F8948C91822B8C939FBFDF91CF9108950F93A4
:200B60001F93CF93DF931F92CDB7DEB7282F30E0F901E859FF4F8491F901E458FF4F1491F7
:200B8000F901E057FF4F04910023C9F0882321F069830E944D056981E02FF0E0EE0FFF1FE5
:200BA000E255FF4FA591B4919FB7F8948C91611103C01095812301C0812B8C939FBF0F902F
:200BC000DF91CF911F910F910895CF93DF93282F30E0F901E859FF4F8491F901E458FF4FFB
:200BE000D491F901E057FF4FC491CC2391F081110E944D05EC2FF0E0EE0FFF1FEC55FF4F31
:200C0000A591B4912C912D2381E090E021F480E002C080E090E0DF91CF910895CF92DF9235
:200C2000EF92FF920F931F93CF93DF9390E0FC01E458FF4FD491FC01E057FF4F7491611125
:200C400002C0C0E001C0CD2FDA01C901BF70672F70E0660F771F6C557F4F00E010E09801B8
:200C6000FB01E590F490F70140814D234C131EC0680179014FEFC41AD40AE40AF40A081731
:200C800019072A073B0709F442C097018601E8CF68017901FFEFCF1ADF0AEF0AFF0A081728
:200CA00019072A073B0799F197018601FB01E590F490F70140814D234C13EACF801B910B8B
:200CC000A20BB30B20E030E0A901FB01E590F490F701F080FD22FC120AC0281739074A07CB
:200CE0005B07A9F02F5F3F4F4F4F5F4FEECFA8E1B0E00E943C0B605F7F4F8F4F9F4F24E075
:200D000096958795779567952A95D1F703C060E070E0CB01DF91CF911F910F91FF90EF90B0
:200D2000DF90CF900895FC01818D228D90E0805C9F4F821B91098F7399270895FC01918DA3
:200D4000828D981731F0828DE80FF11D858D90E008958FEF9FEF0895FC01918D828D9817FF
:200D600061F0828DDF01A80FB11D5D968C91928D9F5F9F73928F90E008958FEF9FEF089598
:200D800080E398E0892B49F080E090E0892B29F00E94300881110C9400000895FC01848D37
:200DA000DF01A80FB11DA35ABF4F2C91848D90E001968F739927848FA689B7892C93A089C2
:200DC000B1898C9180648C93938D848D981306C00288F389E02D80818F7D80830895CF93F5
:200DE000DF93EC01888D8823C9F0EA89FB89808185FD05C0A889B9898C9186FD0FC00FB635
:200E000007FCF5CF808185FFF2CFA889B9898C9185FFEDCFCE010E94CE06E7CFDF91CF912A
:200E20000895CF92DF92FF920F931F93CF93DF931F92CDB7DEB76C01DC015B969C915B9766
:200E40005C968C915C97981307C05096ED91FC915197808185FD32C0F601038D10E00F5FEB
:200E60001F4F0F731127F02EF601848DF81211C00FB607FCF9CFD6015096ED91FC91519709
:200E8000808185FFF1CFC60169830E94CE066981EBCF838DE80FF11DE35AFF4F6083D601E6
:200EA0005B960C935B975296ED91FC91539780818062808381E058968C930DC0D6015696EF
:200EC000ED91FC91579760835096ED91FC91519780818064808381E090E00F90DF91CF9135
:200EE0001F910F91FF90DF90CF900895BF92CF92DF92EF92FF92CF93DF93EC016A017B01CB
:200F0000B22EE889F98982E08083411581EE580761057105A1F060E079E08DE390E0A701E7
:200F200096010E94FB0A21503109410951095695479537952795211580E1380798F0E88906
:200F4000F989108260E874E88EE190E0A70196010E94FB0A215031094109510956954795FE
:200F600037952795EC85FD853083EE85FF852083188EEC89FD89B082EA89FB8980818061FD
:200F80008083EA89FB89808188608083EA89FB89808180688083EA89FB8980818F7D808381
:200FA000DF91CF91FF90EF90DF90CF90BF9008951F920F920FB60F9211242F938F939F9396
:200FC000EF93FF93E0915401F09155018081E0915A01F0915B0182FD12C0908180915D01E5
:200FE0008F5F8F7320915E01821751F0E0915D01F0E0EC5BFE4F958F80935D0101C080818D
:20100000FF91EF919F918F912F910F900FBE0F901F9018951F920F920FB60F9211242F939A
:201020003F934F935F936F937F938F939F93AF93BF93EF93FF9384E491E00E94CE06FF911B
:20104000EF91BF91AF919F918F917F916F915F914F913F912F910F900FBE0F901F90189559
:2010600084E491E00E94930621E0892B09F420E0822F0895109247011092460188EE93E0A0
:20108000A0E0B0E08093480190934901A0934A01B0934B0187E191E09093450180934401D0
:2010A00085EC90E0909351018093500184EC90E0909353018093520180EC90E09093550164
:2010C0008093540181EC90E0909357018093560182EC90E0909359018093580186EC90E03D
:2010E00090935B0180935A0110925D0110925E0110925F0110926001089508950E94960487
:201100000E947D080E948C00C0ECD6E00E94C2032097E1F30E94C006F9CFCF92DF92EF92A3
:20112000FF920F931F93CF93DF936C017A01EB01E60EF71E00E010E0CE15DF0561F0699137
:20114000D601ED91FC910190F081E02DC6010995080F191FF1CFC801DF91CF911F910F9141
:20116000FF90EF90DF90CF9008956115710581F0DB010D900020E9F7AD0141505109461B26
:20118000570BDC01ED91FC910280F381E02D099480E090E00895DC01ED91FC910190F0810E
:2011A000E02D09940F931F93CF93DF93EC016DE00E94CB088C016AE0CE010E94CB08800F04
:2011C000911FDF91CF911F910F9108958F929F92AF92BF92CF92DF92EF92FF920F931F9386
:2011E000CF93DF93CDB7DEB7A1970FB6F894DEBF0FBECDBF7C01C42EE52FCB01D22E19A279
:2012000021E02D1510F02AE0D22E8E010F5D1F4F8D2C912CA12CB12C6C2D7E2FA501940177
:201220000E94FB0A8C2DD29E80191124015011098A3014F4805D01C0895CF801808321152E
:2012400031054105510521F0C22EE32FCA01E4CFB801C7010E94B508A1960FB6F894DEBF26
:201260000FBECDBFDF91CF911F910F91FF90EF90DF90CF90BF90AF909F908F90089521156A
:20128000310541F4DC01ED91FC910190F081E02D642F09940C94E6080F931F93CF93DF9306
:2012A000EC019A01462F50E060E070E00E943F098C01CE010E94D208800F911FDF91CF91A0
:2012C0001F910F91089508955058BB27AA270ED044C135D130F03AD120F031F49F3F11F4FD
:2012E0001EF42AC10EF4E095E7FB20C1E92F46D180F3BA17620773078407950718F071F4CD
:201300009EF55EC10EF4E0950B2EBA2FA02D0B01B90190010C01CA01A0011124FF27591B16
:2013200099F0593F50F4503E68F11A16F040A22F232F342F4427585FF3CF46953795279534
:20134000A795F0405395C9F77EF41F16BA0B620B730B840BBAF09150A1F0FF0FBB1F661F0A
:20136000771F881FC2F70EC0BA0F621F731F841F48F4879577956795B795F7959E3F08F01D
:20138000B3CF9395880F08F09927EE0F979587950895A8D008F481E008950CD0DEC0D6D0E0
:2013A00040F0CDD030F021F45F3F19F0BFC0511108C1C2C0E3D098F39923C9F35523B1F386
:2013C000951B550BBB27AA2762177307840738F09F5F5F4F220F331F441FAA1FA9F333D0AA
:2013E0000E2E3AF0E0E830D091505040E695001CCAF729D0FE2F27D0660F771F881FBB1F4D
:20140000261737074807AB07B0E809F0BB0B802DBF01FF2793585F4F2AF09E3F510568F028
:2014200085C0CFC05F3FECF3983EDCF3869577956795B795F7959F5FC9F7880F911D96958D
:20144000879597F90895E1E0660F771F881FBB1F621773078407BA0720F0621B730B840B1D
:20146000BA0BEE1F88F7E0950895E89409C097FB3EF490958095709561957F4F8F4F9F4F31
:201480009923A9F0F92F96E9BB279395F695879577956795B795F111F8CFFAF4BB0F11F4C5
:2014A00060FF1BC06F5F7F4F8F4F9F4F16C0882311F096E911C0772321F09EE8872F762F2C
:2014C00005C0662371F096E8862F70E060E02AF09A95660F771F881FDAF7880F96958795F0
:2014E00097F90895990F0008550FAA0BE0E8FEEF16161706E807F907C0F012161306E4072D
:20150000F50798F0621B730B840B950B39F40A2661F0232B242B252B21F408950A2609F4A3
:20152000A140A6958FEF811D811D089597F99F6780E870E060E008959FEF80EC0895002452
:201540000A941616170618060906089500240A9412161306140605060895092E0394000C3B
:2015600011F4882352F0BB0F40F4BF2B11F460FF04C06F5F7F4F8F4F9F4F089557FD905828
:20158000440F551F59F05F3F71F04795880F97FB991F61F09F3F79F08795089512161306ED
:2015A0001406551FF2CF4695F1DF08C0161617061806991FF1CF869571056105089408955A
:2015C000E894BB2766277727CB0197F9089597FB072E16F4009407D077FD09D00E94470B0C
:2015E00007FC05D03EF4909581959F4F0895709561957F4F0895A1E21A2EAA1BBB1BFD0151
:201600000DC0AA1FBB1FEE1FFF1FA217B307E407F50720F0A21BB30BE40BF50B661F771F40
:20162000881F991F1A9469F760957095809590959B01AC01BD01CF010895052E97FB1EF4BE
:2016400000940E94340B57FD07D00E94FB0A07FC03D04EF40C94340B509540953095219517
:201660003F4F4F4F5F4F089590958095709561957F4F8F4F9F4F08950E94610BA59F900D98
:20168000B49F900DA49F800D911D11240895AA1BBB1B51E107C0AA1FBB1FA617B70710F058
:2016A000A61BB70B881F991F5A95A9F780959095BC01CD010895EE0FFF1F0590F491E02D15
:2016C0000994A29FB001B39FC001A39F700D811D1124911DB29F700D811D1124911D08953C
:2016E000F894FFCF28000C000D000E000F001000050005000500010000000011078D0893D2
:2017000006AC069E06EF0600FFFFFFFFFFFFFFFFFFFFFFFFFFFFFFFFFFFFFFFFFFFFFFFF90
:20172000FFFFFFFFFFFFFFFFFFFFFFFFFFFFFFFFFFFFFFFFFFFFFFFFFFFFFFFFFFFFFFFFC9
:20174000FFFFFFFFFFFFFFFFFFFFFFFFFFFFFFFFFFFFFFFFFFFFFFFFFFFFFFFFFFFFFFFFA9
:20176000FFFFFFFFFFFFFFFFFFFFFFFFFFFFFFFFFFFFFFFFFFFFFFFFFFFFFFFFFFFFFFFF89
:2017800010F0A61BB70B881F991F5A95A9F780959095BC01CD010895EE0FFF1F0590F49141
:2017A000E02D0994A29FB001B39FC001A39F700D811D1124911DB29F700D811D1124911DEB
:2017C0000895F894FFCF28000C000D000E000F00100005000500050001000000008207FE0D
:2017E0000804071D070F07600700FFFFFFFFFFFFFFFFFFFFFFFFFFFFFFFFFFFFFFFFFFFF4B
:201800000C940A0C50954095309521953F4F4F4F5F4F089590958095709561957F4F8F4F85
:201820009F4F08950E94230CA59F900DB49F900DA49F800D911D11240895EE0FFF1F05907B
:20184000F491E02D0994A29FB001B39FC001A39F700D811D1124911DB29F700D811D112473
:20186000911D0895F894FFCF0100000009000B0006000800050007000E000F001000140053
:2018800014000F0028000C000D0001000000002F040204D703DF03F20301040000000052A2
:2018A00008CE09D407ED07DF07300800FFFFFFFFFFFFFFFFFFFFFFFFFFFFFFFFFFFFFFFF70
:2018C000FFFFFFFFFFFFFFFFFFFFFFFFFFFFFFFFFFFFFFFFFFFFFFFFFFFFFFFFFFFFFFFF28
:2018E000FFFFFFFFFFFFFFFFFFFFFFFFFFFFFFFFFFFFFFFFFFFFFFFFFFFFFFFFFFFFFFFF08
:201900007F4F8F4F9F4F9923A9F0F92F96E9BB279395F695879577956795B795F111F8CF63
:20192000FAF4BB0F11F460FF1BC06F5F7F4F8F4F9F4F16C0882311F096E911C0772321F0CB
:201940009EE8872F762F05C0662371F096E8862F70E060E02AF09A95660F771F881FDAF768
:20196000880F9695879597F90895990F0008550FAA0BE0E8FEEF16161706E807F907C0F0F6
:2019800012161306E407F50798F0621B730B840B950B39F40A2661F0232B242B252B21F4BD
:2019A00008950A2609F4A140A6958FEF811D811D089597F99F6780E870E060E008959FEF31
:2019C00080EC089500240A941616170618060906089500240A941216130614060506089564
:2019E000092E0394000C11F4882352F0BB0F40F4BF2B11F460FF04C06F5F7F4F8F4F9F4FA3
:201A0000089557FD9058440F551F59F05F3F71F04795880F97FB991F61F09F3F79F087956D
:201A20000895121613061406551FF2CF4695F1DF08C0161617061806991FF1CF8695710596
:201A4000610508940895E894BB2766277727CB0197F90895DB018F939F930E947B0DBF91BB
:201A6000AF91A29F800D911DA39F900DB29F900D11240895A1E21A2EAA1BBB1BFD010DC0DA
:201A8000AA1FBB1FEE1FFF1FA217B307E407F50720F0A21BB30BE40BF50B661F771F881FE2
:201AA000991F1A9469F760957095809590959B01AC01BD01CF010895052E97FB1EF400944D
:201AC0000E94730D57FD07D00E943A0D07FC03D04EF40C94730D50954095309521953F4FD5
:201AE0004F4F5F4F089590958095709561957F4F8F4F9F4F08950E948C0DA59F900DB49F22
:201B0000900DA49F800D911D11240895EE0FFF1F0590F491E02D0994A29FB001B39FC001F4
:201B2000A39F700D811D1124911DB29F700D811D1124911D0895F894FFCF01000000090015
:201B40000B0006000800050007000E000F00100005000500050005000C000D000100000005
:201B6000001D04F003C503CD03E003EF0300000000CF084B0A51086A085C08AD0800FFFFD6
:201B8000000000D808540A5A0873086508B60800FFFFFFFFFFFFFFFFFFFFFFFFFFFFFFFF0F
:201BA000FFFFFFFFFFFFFFFFFFFFFFFFFFFFFFFFFFFFFFFFFFFFFFFFFFFFFFFFFFFFFFFF45
:201BC000FFFFFFFFFFFFFFFFFFFFFFFFFFFFFFFFFFFFFFFFFFFFFFFFFFFFFFFFFFFFFFFF25
:201BE000FFFFFFFFFFFFFFFFFFFFFFFFFFFFFFFFFFFFFFFFFFFFFFFFFFFFFFFFFFFFFFFF05
:201C0000FFFFFFFFFFFFFFFFFFFFFFFFFFFFFFFFFFFFFFFFFFFFFFFFFFFFFFFFFFFFFFFFE4
:207E0000112484B714BE81FFF0D085E08093810082E08093C00088E18093C10086E08093FC
:207E2000C20080E18093C4008EE0C9D0259A86E020E33CEF91E0309385002093840096BBAD
:207E4000B09BFECF1D9AA8958150A9F7CC24DD2488248394B5E0AB2EA1E19A2EF3E0BF2E79
:207E6000A2D0813461F49FD0082FAFD0023811F0013811F484E001C083E08DD089C0823404
:207E800011F484E103C0853419F485E0A6D080C0853579F488D0E82EFF2485D0082F10E0A0
:207EA000102F00270E291F29000F111F8ED068016FC0863521F484E090D080E0DECF84364D
:207EC00009F040C070D06FD0082F6DD080E0C81680E7D80618F4F601B7BEE895C0E0D1E0ED
:207EE00062D089930C17E1F7F0E0CF16F0E7DF0618F0F601B7BEE89568D007B600FCFDCF1A
:207F0000A601A0E0B1E02C9130E011968C91119790E0982F8827822B932B1296FA010C016F
:207F200087BEE89511244E5F5F4FF1E0A038BF0751F7F601A7BEE89507B600FCFDCF97BE85
:207F4000E89526C08437B1F42ED02DD0F82E2BD03CD0F601EF2C8F010F5F1F4F84911BD0B8
:207F6000EA94F801C1F70894C11CD11CFA94CF0CD11C0EC0853739F428D08EE10CD085E9AE
:207F80000AD08FE07ACF813511F488E018D01DD080E101D065CF982F8091C00085FFFCCF0A
:207FA0009093C60008958091C00087FFFCCF8091C00084FD01C0A8958091C6000895E0E68F
:207FC000F0E098E1908380830895EDDF803219F088E0F5DFFFCF84E1DECF1F93182FE3DF47
:207FE0001150E9F7F2DF1F91089580E0E8DFEE27FF270994FFFFFFFFFFFFFFFFFFFF040425
:00000001FF
